:020000041000EA
:1000000000B5324B212058609868022188439860DF
:10001000D860186158612E4B002199600221596106
:100020000121F02299502B49196001219960352056
:1000300000F044F80222904214D00621196600F024
:1000400034F8196E01211966002018661A6600F04E
:100050002CF8196E196E196E052000F02FF8012189
:100060000842F9D1002199601B49196000215960AB
:100070001A491B48016001219960EB211966A021F2
:10008000196600F012F800219960164914480160C1
:100090000121996001BC002800D000471248134993
:1000A000086003C880F30888084703B5996A0420EC
:1000B0000142FBD001200142F8D103BD02B5186610
:1000C0001866FFF7F2FF186E186E02BD00000240BE
:1000D000000000180000070000035F00212200005C
:1000E000F4000018222000A00001001008ED00E03C
:1000F00000000000000000000000000074B24E7A12
:1001000000200420F7010010C3010010C5010010F9
:10011000C1010010C1010010C1010010C101001097
:10012000C1010010C1010010C1010010C701001081
:10013000C1010010C1010010C9010010CB01001065
:10014000CD010010CD010010CD010010CD01001037
:10015000CD010010CD010010CD010010CD01001027
:10016000CD010010CD010010CD010010CD01001017
:10017000CD010010CD010010CD010010CD01001007
:10018000CD010010CD010010CD010010CD010010F7
:10019000CD010010CD010010CD010010CD010010E7
:1001A000CD010010CD010010CD010010CD010010D7
:1001B000CD010010CD010010CD010010CD010010C7
:1001C00000BE00BE00BE00BE00BE00BEEFF3058054
:1001D000103800BEF2EB88717CB40010A0B400109F
:1001E0003802001090A31AE71E481F49086006C88D
:1001F00081F3088810471D480068002801D019487D
:10020000F3E70DA40ECC002902D000F012F8F9E7B4
:100210001749184A002000E001C19142FCD116495B
:100220008847164988471649884700BEFDE701C937
:1002300001C29A42FBD37047A0B40010D000002046
:100240003816002008CA0010000004200000042016
:1002500008CA001000100420001004200000000054
:10026000704700000000000008ED00E0000000D032
:1002700038160020C82A0220714B00100D0900100A
:10028000694B0010F8B5C04606480749091A8B109B
:10029000C90FC91810B5491003D0044B002B00D06A
:1002A000984710BD381600203816002000000000C6
:1002B000054B10B5002B03D00449054800E000BFF2
:1002C000FFF7E2FF10BDC04600000000A825002097
:1002D00024AA0010F0B583B004000D0002F078F8F5
:1002E000002306000F000193052C28D0062C0FD008
:1002F000162C0BD16D0709D534003D0024490A683E
:100300004B68A41A9D41002D3ADC36D003B0F0BDF5
:100310006D07FBD534003D001E490A684B68A41ADE
:100320009D41002D03DCF1D11B4B9C42EED91B4BB0
:100330000E604F60186801A908F094F915E06D0788
:10034000E4D534003D0016490A684B68A41A9D4163
:10035000002D03DCDAD1104B9C42D7D9114B0E6033
:100360004F60186801A908F07DF9019B002BCDD0E2
:1003700080220D4B52051A60C8E7074B9C42C5D935
:100380000A4B0E604F60186801A908F06BF9ECE7A2
:10039000D0180020C8180020400D0300742A022045
:1003A000C0180020042A022004ED00E0702A022078
:1003B000F0B54F464646D646D025314BC0B5984697
:1003C000304B314E9A46314B314F994688B02D060D
:1003D0000BE080239B01AB6180231B01AB61802379
:1003E0005B016B612B4808F097FE01213488386867
:1003F0004942A4B208F002FA01281CD03388002B2D
:10040000E7D03388062B09D880239B01AB6180237A
:100410001B016B6180235B01AB61E3E73388072B32
:1004200029D080239B016B6180231B01AB6180235A
:100430005B01AB61D6E74046002100F09DFC5146D0
:1004400040461423052200F0DBFD23004A4620210C
:10045000684604F041FB694628230522404600F027
:10046000CFFD404600F042FC002300220021386806
:1004700007F030FFC2E780239B016B61C7E7C046EE
:100480008C29002028AA0010BC2A02203CAA0010B7
:10049000302A022088130000F0B55746DE464E464B
:1004A0004546484BE0B59846474B8DB09946474B7B
:1004B000D0279A46464B3F060193464B0293464B44
:1004C000039300239B46434601211868494208F0E4
:1004D00095F90128F7D14B465A461A801C8801210C
:1004E000534649421868A4B208F088F9012843D05D
:1004F0004B461B88002B23D180239B01BB618023AB
:100500001B01BB6180235B017B6101242200334E10
:10051000334D336864209A432A6008F0FDFD336848
:10052000642023402B6008F0F7FD2200336864202C
:100530009A432A6008F0F0FD33681C402C60C2E743
:100540004B461B88062B09D880239B01BB61802367
:100550001B017B6180235B01BB61D6E74B461B8897
:10056000072B2BD080239B017B6180231B01BB6168
:1005700080235B01BB61C8E7019D0021280000F0DA
:10058000FBFB280002991423052200F039FD23000B
:10059000039A202104A804F09FFA04A92823052225
:1005A000280000F02DFD280000F0A0FB534600229B
:1005B00000211868002307F08DFE99E780239B0136
:1005C0007B61C4E7702A0220BC2A0220302A022064
:1005D0008C2900204CAA00103CAA001028000540DD
:1005E00028100540F0B557464546DE464E46E0B574
:1005F000584B8BB09846584B584C0093584B594D1C
:100600009B46594B594F0193594B9A4601239946A2
:1006100001212068494208F0F1F80128F8D12B881F
:100620003868072B29D801212B88494201339BB216
:100630002B802E88B6B208F0E1F8012843D02B8831
:10064000002B0BD1D02380221B0692019A618022BD
:1006500012019A61802252015A61D9E72B88062B38
:1006600022D8D02380221B0692019A618022120197
:100670005A61802252019A61CAE701212E884942BB
:10068000B6B208F0BBF801283DD053464A461B6875
:10069000384E9A433260642008F03EFD53464A4685
:1006A0001B6813403360B3E72B88072B4BD0D02354
:1006B00080221B0692015A61802212019A618022D7
:1006C00052019A61A4E74046002100F055FB4046E4
:1006D00000991423052200F093FC33005A46202190
:1006E00002A804F0F9F902A928230522404600F0E7
:1006F00087FC404600F0FAFA002300220021386807
:1007000007F0E8FD9BE74046002100F035FB40463E
:1007100001991423052200F073FC33005A4620216E
:1007200002A804F0D9F902A928230522404600F0C6
:1007300067FC404600F0DAFA002300220021386806
:1007400007F0C8FDA1E7D02380221B0692015A6161
:100750008CE7C0468C29002060AA0010042A0220E1
:100760003CAA0010BC2A02206CAA0010302A0220E9
:100770002800054028100540F0B557464546DE469E
:100780004E46E0B5584B8BB09846584B584C0093AA
:10079000584B594D9B46594B594F0193594B9A46CB
:1007A0000123994601212068494208F027F80128D1
:1007B000F8D12B883868002B29D001212B88494299
:1007C000013B9BB22B802E88B6B208F017F80128A7
:1007D00043D02B88002B0BD1D02380221B06920103
:1007E0009A61802212019A61802252015A61D9E7EE
:1007F0002B88062B22D8D02380221B0692019A61D7
:10080000802212015A61802252019A61CAE70121B5
:100810002E884942B6B207F0F1FF01283DD0534679
:100820004A461B68384E9A433260642008F074FCD4
:1008300053464A461B6813403360B3E72B88072BA7
:100840004BD0D02380221B0692015A6180221201D4
:100850009A61802252019A61A4E74046002100F08B
:100860008BFA404600991423052200F0C9FB33009F
:100870005A46202102A804F02FF902A928230522B4
:10088000404600F0BDFB404600F030FA0023002255
:100890000021386807F01EFD9BE74046002100F06C
:1008A0006BFA404601991423052200F0A9FB33009E
:1008B0005A46202102A804F00FF902A92823052294
:1008C000404600F09DFB404600F010FA0023002255
:1008D0000021386807F0FEFCA1E7D02380221B0628
:1008E00092015A618CE7C0468C29002080AA001032
:1008F000742A02203CAA0010BC2A022088AA0010F8
:10090000302A0220280005402810054030B583B069
:1009100004F03AFA614D6249280006F051FF0321C4
:100920000E2000F0F1FC03210F2000F0EDFC00226E
:1009300001210E2000F002FD002201210F2000F015
:10094000FDFC3C23574C4022802120000195009360
:10095000002300F0C9F8200000F0E0F8200000F0CB
:10096000C5F9D024052000F091FD20232406A362C0
:1009700000220121052000F0E1FC062000F086FDA8
:1009800040230022A3620121062000F0D7FC16209C
:1009900000F07CFD8023DB0300220121A3621620EE
:1009A00000F0CCFC0D2000F071FD80239B01636200
:1009B0000B2000F06BFD80231B0163620C2000F014
:1009C00065FD80235B0163620421152000F09CFC1F
:1009D000FA220024344B92009C621C635C639A638D
:1009E000FA22D200DA629C62304B04211A68FA23A0
:1009F0005B0453401B0C2E4A1B04136005202D4B37
:100A0000012200F0DBFC01220421062000F0AAFCF8
:100A100001220421162000F0A5FC012007F044FD6E
:100A2000254B002118600A2007F020FC234B0021F1
:100A300018600A2007F01AFC214B032218600021DD
:100A4000012007F0C1FB0125C0221E4B1E49186082
:100A5000520000231D480194009508F045FAC02279
:100A600000231B4952001B480194009508F03CFAF2
:100A7000C02200231849520018480194009508F03C
:100A800033FAC022002316495200164801940095FB
:100A900008F02AFA08F03AFA00F036FDB810002003
:100AA000801A06008C290020000005403400054013
:100AB00034100540D5020010302A0220042A0220FA
:100AC000742A0220702A022098AA0010E50500105E
:100AD000A4AA001079070010B0AA00109904001011
:100AE000BCAA0010B103001070B56B460400D0081A
:100AF00005041B7C484312020A432A431B061A437F
:100B0000059B0130636001212260206102F062FBDD
:100B1000402303704033E060237570BD70B506005C
:100B20000025AE2382B014360400C178437532002C
:100B30004068AC3B009506F06BFE2023E1786375BE
:100B4000320060681E3B009506F062FE0123E178EA
:100B50006375320060680133009506F059FE40234A
:100B6000E1786375320060683E3B009506F050FE08
:100B7000A123E1786375320060689F3B009506F021
:100B800047FEA823E178637532006068A63B0095B4
:100B900006F03EFE3F23E1786375320060683D3B1E
:100BA000009506F035FEC823E17863753200606871
:100BB000C63B009506F02CFED323E1786375320026
:100BC0006068D13B009506F023FEE1783200606852
:100BD00065750223009506F01BFEDA23E178637544
:100BE00032006068D83B009506F012FE1223E178CF
:100BF000637532006068103B009506F009FED5234E
:100C0000E178637532006068D33B009506F000FE22
:100C10008023E1786375320060687E3B009506F0C2
:100C2000F7FDD923E178637532006068D73B009502
:100C300006F0EEFDF123E178637532006068EF3B6A
:100C4000009506F0E5FDDB23E1786375320060680E
:100C5000D93B009506F0DCFD3023E1786375320066
:100C600060682E3B009506F0D3FD8123E178637523
:100C7000320060687F3B009506F0CAFDFF23E178F3
:100C8000637532006068FD3B009506F0C1FDA4234A
:100C9000E178637532006068A23B009506F0B8FD0C
:100CA000A623E178637532006068A43B009506F0E6
:100CB000AFFD8D23E1786375320060688B3B009552
:100CC00006F0A6FD1423E178637532006068123BDC
:100CD000009506F09DFDAF23E178637560683200F2
:100CE0000095AD3B06F094FD02B070BD70B50600F6
:100CF00000252123040082B01436C17843753200E8
:100D000040681F3B009506F083FDE1783200606883
:100D100065750223009506F07BFD2378E178013BA1
:100D20006375320060680223009506F071FD22238E
:100D3000E178637532006068203B009506F068FD3D
:100D4000E1783200606865750223009506F060FD69
:100D5000A378E178013B6375320060680223009557
:100D600006F056FD2369E268E1786068009506F0B8
:100D70004FFD02B070BDC0464378F0B5002B1FD0C8
:100D8000072300269C460127047800291ED1002C49
:100D900016D063463D0033409D400023ED43F208EA
:100DA0000132C4680133A15CDBB22940A15404784C
:100DB00008329C42F5D801364378F6B2B342E6D801
:100DC000F0BD01364378F6B2B342F9D9002CF7D022
:100DD00063463D0033409D400023F2080132C46861
:100DE0000133A15CDBB22943A154047808329C4250
:100DF000F5D8E6E7F0B557464546DE464E46E0B53F
:100E000000252039CCB2AA4695B05E2C02D8C90084
:100E100089B28A460124D90801310591591CC9B209
:100E20008946C90801310691991CC9B28846C9088A
:100E300001310791D91CC9B28C461D1DC908EDB2FC
:100E400001315F1D0291E9080131FFB29E1D04913D
:100E5000F9080131F6B20191F10801310391D91D70
:100E6000C9B28B46C90801310891072109952500AF
:100E70000B409D404B460C9525000B409D40434642
:100E80000D9525000B409D4063460E9525000B40B7
:100E90009D4023000F95099D0F400D40AB400993E5
:100EA0002300BB4027000E40B7405E4631408C40D7
:100EB00011000A9308310C9BC9B28B46D9430D9B94
:100EC0001091D943119104210E9B8C46D9430F9B5D
:100ED0001291DB430821494DB94688460B9455448D
:100EE000139354E0109F3C403470069CC7681C1953
:100EF0003E193C5D02270F4200D07AE0119F3C4032
:100F00003470079CC7681C193E193C5D67460F4248
:100F10006BD1129F3C403470029CC768E4183E19A4
:100F20003C5D47460F425CD1139F3C403470049CAB
:100F3000C768E4183E193C5DCF064ED4099FBC43F8
:100F40003470019CC768E4183E193C5D8F0640D49C
:100F50000A9FBC433470039CC768E4183E193C5D8B
:100F60004F0632D44F46BC433470089CC668A24634
:100F700049B25344F418F35C002916DB0B99013293
:100F80008B4323705B46D2B20135934216D0059C49
:100F9000C768D3001C193E193C5D012729780F4210
:100FA000A0D00C9F3C43E4B29EE70B9901320B4367
:100FB00023705B46D2B201359342E8D115B0F0BC44
:100FC000BB46B246A946A046F0BD4F463C43E4B2FC
:100FD000CAE70A9F3C43E4B2BCE7099F3C43E4B242
:100FE000AEE70F9F3C43E4B2A0E70E9F3C43E4B260
:100FF00091E70D9F3C43E4B282E7C046A4AC0010E9
:10100000F8B507000E0014001D0014E0220008349B
:101010002B003800E4B2FFF7EDFE22003B780832E7
:1010200001369A4202DB00240835EDB22B007A78B3
:101030000833934202DA31780029E7D1F8BDC0467F
:10104000D0231B061B68AC4A9900F0B5DE468B46E0
:1010500051585A4253412F2257464E4645465B420D
:1010600093439A46A54BE0B59C4683B00026019178
:10107000E244002938D0A24B99465246F30808337F
:101080009B009D580123340098460836002D22D03D
:101090000F212000294001342D09002919D04B4689
:1010A0005A469A580300C240203BDB171340424681
:1010B00013420CD107220F000240920097403A00E1
:1010C000C308904F3C339B00DA51019B9847002D99
:1010D00001D0B442DCD3202ECFD103B0F0BCBB464C
:1010E000B246A946A046F0BD854E5F4600210F23BB
:1010F000B346CC0822005046083292001258002A0B
:1011000000D1D0E0180010408046100913421AD0D8
:101110005D46ED59A94620256D42AC468C44654696
:10112000ED17AC464D46CD40A94665464E46354086
:101130000126354204D14646724D3C34A400665126
:10114000002800D1AFE01C000440A446140A03426A
:101150001AD0481C80465846C059464681464D46DE
:101160000800F5401F38C01728400125284208D143
:1011700065462D01AC46F0086646624D3C30800065
:101180004651002C00D18EE0180020408446100B00
:10119000234211D08C1CA0465C46E4594646A14629
:1011A0004D460C00F5401E3CE4172C4001252C4216
:1011B00000D182E0002876D01C000440A446140C24
:1011C000034210D0C81C80465846C0594646814646
:1011D0004D460800F5401D38C0172840012528421B
:1011E00075D0002C5FD0180020408046100D23429F
:1011F0000ED00C1DA4466546414CE459EC40A14676
:101200000C004D461C3CE40F2C426AD000284AD00A
:101210001C000440A446140E034218D0481D80460A
:1012200045463748C059E840814608004D461B38BE
:10123000C00F284209D165462D05AC46404666469A
:10124000C008304D3C3080004651002C2BD0180097
:1012500020408446120F23422AD029488C1D814603
:10126000C059E0408046080045461A38C00F284261
:1012700006D1E0086446234D3C30240680004451EA
:10128000002A10D04846C059CC1DE04084460800D2
:1012900065461938C00F284205D1E0083C30194C8A
:1012A0001207800002510831202900D021E714E7FD
:1012B000002AF8D012488146E4E765462D02AC4684
:1012C000F40866460F4D3C34A400665172E765464B
:1012D0002D03AC46F00866460A4D3C30800046516E
:1012E0007FE745462D04A84664464646E408054D7A
:1012F0003C34A400665189E72021002030410140A0
:101300007428002000400140094A83009A1810B553
:1013100014684022544080322240064CC000A4464B
:1013200063441A60044B9C466044416010BDC04653
:1013300004C0014004D0014000400140074B800040
:10134000C3181B68C90092000A435A400C2313407B
:10135000034A9446604403607047C04604C001409D
:1013600004D00140D0231B061B6830B5050058424D
:1013700043412F205B4283430E48EC0884460720FC
:1013800028408000814020000B4D3C3063448000A9
:10139000A40041511B19002A05D0802292019446D5
:1013A0006344196030BDC0229201944663441960C1
:1013B000F8E7C0463041014000400140F8B54546DD
:1013C0009846D0231B06DE461C689B462B4B57468F
:1013D0009A46A3004E469946E0B5534616004A4643
:1013E0009B5807000D00002B34D04346002B3FD004
:1013F00053464A4641469950D0231B061C68634217
:101400005C412F220720634293431D4A3840944693
:10141000FA081100800085403C311A486344890075
:1014200092000D509B18002E0ED0802292019446FF
:10143000634401210D201D6000F010F9F0BCBB4693
:10144000B246A946A046F8BDC02292019446634424
:101450001D60F3E74346002BD1D0534641460D2093
:1014600099500022084900F05BF95B461C68C6E70A
:101470000D20054900F04EFABAE7C04620210020B1
:101480003041014000400140411000100123D022B2
:101490008340120693629361094A83009A18116887
:1014A0004022514080320A400649C0008C466344C5
:1014B0001A60054B9C460523604443607047C04654
:1014C00004C0014004D00140004001408023DB05FE
:1014D0001868000F7047C0460FB400B5084883B0C5
:1014E00003F0A0FC049B002B07D005A91800019174
:1014F00003F006FB034803F095FC012003F018FB02
:10150000C8AA0010D8AA001010B50148FFF7E4FFE0
:10151000DCAA001070B5EFF3108C72B60D4D2B687D
:10152000002BFCD0BFF35F8F0724CB08C618C05C2C
:1015300001230C40A3401C000440034207D1184380
:101540003070BFF35F8F2C608CF3108870BD10007B
:10155000FFF7C2FF2C0100D0F8B54746CE468846BB
:1015600080B5EFF3108C72B61C4D2C68002CFCD0AB
:10157000BFF35F8F9A4222D807210126894602E0F5
:101580000132934218D34D4637001540AF40D4087E
:101590000119045D2742F3D110003C430C70BFF3E6
:1015A0005F8F00220D4B1A608CF3108800280EDB31
:1015B000C0BCB946B046F8BD01204042EFE7BFF3DA
:1015C0005F8F00232B608CF310880120404243463C
:1015D000002BEDD00898FFF77FFFC0462C0100D00C
:1015E000044A1078431CDBB2172B00D91023137068
:1015F0007047C046F80F002010B5064B064C82B06D
:101600000100009318221F232000FFF7A5FF02B05E
:1016100010BDC046ECAA0010302100200021044B70
:10162000044ABFF35F8F02C39342FAD17047C046AA
:10163000000100D0800100D0054B064A1360064A25
:10164000136053609360D36013615361936170477B
:101650008080808000E400E004E400E01F23184064
:101660001E3B8340002905D0C021044A4900535045
:1016700013607047802201498B50FAE700E100E0D7
:1016800001228240034B1B6813405A1E9341D8B27B
:101690007047C04600E100E001238340014A136027
:1016A0007047C04600E200E0064B10309B688000A7
:1016B000C358054A00209B1A2F229A424041C0B2CB
:1016C0007047C04600ED00E0FC0F002070B50D0033
:1016D000EFF3108672B60F4A1368002BFCD0BFF3ED
:1016E0005F8F0D4B10309B6884001B590B4A93424F
:1016F00003D09D4201D001F09FF8074B9B681D511C
:10170000BFF35F8FBFF35F8F0022024B1A6086F337
:10171000108870BD240100D000ED00E0CD01001064
:10172000F0B557464E46DE464546E0B585B0060064
:1017300000911700EFF3108B72B66A4A1368002B02
:10174000FCD0BFF35F8F0025674B5D579A46002D95
:1017500000DAA9E06B00654C01935B199B00984689
:10176000A146C1444B4652469B7910361370604BDC
:10177000B6009B6899590B1B2F2B33D95D4B9942AF
:1017800000D0ACE0019B42469C465B4B6544AD00FB
:1017900063535A4B0232A218043B9B1A1B05584A4A
:1017A0005B0D651913436B80564B0121AB80FF2302
:1017B000AB71009BEF71AB604B460B4319004C4B78
:1017C0009B689951BFF35F8FBFF35F8F0022454B3A
:1017D0001A608BF3108805B0F0BCBB46B246A94630
:1017E000A046F0BD01200A008243D3798C46BB425B
:1017F00031D84546130044491B1B5B415943090D31
:101800003D4B63533D4B02356519043B5B1B1B0588
:101810003B4D5B0D2B43AA464D466B800425AC46E1
:101820005546E044131F44441B1B1B055B0D1D4321
:101830004B46997100999D8099604946DF71334B01
:1018400001431360BBE75800C01880002018C1791D
:10185000B9422FD902000623D356002BF3DA0293A4
:101860002B4B61460393131D9A4604235B429C460F
:10187000E14450464B461B1A1B055B0D9C46204B12
:10188000957198466346404603439380019B5A19DD
:101890009200039BA418A380029B1C4AA371009B87
:1018A0002260E771A3608AE700F0C6FF0025534677
:1018B0005D574FE7908802934005131D9A46031524
:1018C00061469C464046D444634604302018181AAA
:1018D000E0230005400D1B0218430390C5E700F00C
:1018E000ABFF4FE7240100D0C22A0220FC0F0020EA
:1018F00000ED00E0CD01001000A1FFFF2C10002042
:1019000000E0FFFF01BDFFFFAAAA000001488047D9
:1019100001BD0000F0B5DE4657464E464546E0B5EF
:101920000C0083B0EFF3108872B6634A1368002B83
:10193000FCD0BFF35F8F614B61499A68030010339D
:101940009F00D55901938D4243D0A54254D05D4E9E
:10195000AA1B2F2A3DD85C4B9B461B689946012346
:101960001A009C4682404B4613401F22994663460C
:10197000024093409A4680225B4650469850BFF3FF
:101980005F8FEFF305839B46002B37D0019B5B45B0
:1019900001D000F051FF01232A009A43906884424D
:1019A00008D176E04B005B189B00F31898688442DE
:1019B00036D01A00062151560029F3DA844254D059
:1019C0004B46002B27D0C02251463F4B5200995026
:1019D00019603A4B9B68DD51BFF35F8FBFF35F8F98
:1019E0000022354B1A6088F3108803B0F0BCBB4668
:1019F000B246A946A046F0BD0D00EAE72A006346BC
:101A00009A4390688442D5D10620105613000028CE
:101A10000ADA0D0031E0802351462B4AD150D8E735
:101A200006201856002821DB42001118890074187E
:101A30008B46A1689960E179D97106216156997147
:101A4000002924DBA488F11A640524155C440919D3
:101A500009051E4C490D2143998013181C4A9B000F
:101A60001178F31899711070AAE7130059460029EC
:101A700014D1FF3191711749918015490A789A71F3
:101A8000154A9B1B5B415A43120D0A7098E7114996
:101A9000E2E70620105613000028C5DA0F4A104965
:101AA000D21A083A5002400D014399800D4952085C
:101AB0000A43DA8084E7C046240100D000ED00E04C
:101AC000CD010010FC0F002000E100E000E0FFFF6E
:101AD000C22A022001BDFFFFAAAA00003610002082
:101AE00000F0FFFF00F8FFFF10B58308040003209B
:101AF0002040FF24054AC0009446844081409B005A
:101B000063441A68A2430A431A6010BD00E400E06F
:101B100070B501240443EFF30581EFF3108C72B626
:101B2000214A1368002BFCD0BFF35F8F1F4B0500C9
:101B30001F4AED1A6D416A43120D1E4D8900AE68B1
:101B400052B27658A6421CD00621595691421CD05A
:101B500012215956914222D01E215956914220D02D
:101B60002A2159560324914210D0134B19781A7028
:101B70008171BFF35F8F00220B4B1A608CF31088CA
:101B800070BDAB680D4C5C50EFE700246100091993
:101B900089005B18FF21997109499980E5E70124C3
:101BA000F4E70224F2E7C046240100D0FC0F002035
:101BB000AAAA000000ED00E0C22A0220CD01001018
:101BC00001BDFFFF10B5084B084C82B00100009327
:101BD000002205232000FFF7BFFC002801DB1F23A4
:101BE000181A02B010BDC04608AB0010C62A022069
:101BF000024B9C46614489000160704740000034FC
:101C0000F8B5124C124DAC4212D201260027764292
:101C10002368002B0DD0FFF7E3FC01002000FFF745
:101C2000E7FF66602772BFF35F8F0C34AC42EFD3DF
:101C3000F8BDFFF7D5FC01002000FFF7D9FF666073
:101C4000BFF35F8F0834AC42E2D3F1E728160020DF
:101C50003816002010B50400FFF7C2FC0100200078
:101C6000FFF7C6FF01235B426360BFF35F8F10BDC8
:101C700010B504000120FFF7BFFC034BC3189B0005
:101C80002360BFF35F8F10BD40000034034B9C46C0
:101C9000614489000160BFF35F8F704740000034EA
:101CA000F0B5DE4657464E464546E0B587B0EFF301
:101CB0000583032201251A40954091008846A946D4
:101CC000B34B03925C58B34B1D60B34B04934B462C
:101CD000B24843630823E55E002D37DAA3881BB2C0
:101CE000002B00DBADE0A379002B00D0EEE0082351
:101CF000E05E002820DB430062691B18DB00D3187C
:101D00009E68DD68731C00D111E1A44801004144C4
:101D1000826A0B69B71A9B1A9F4215D30123026A84
:101D2000039883401A420FD09C4800F049FB8D4233
:101D300002DCCCD18642CAD940BF07B0F0BCBB465A
:101D4000B246A946A046F0BD0E61EDE762696B00A0
:101D500092465B19DB009A4453469E68DF6800F0A8
:101D60002FFB8F42BADC00D103E1002F00DAE8E05C
:101D70005246534652691B699346049A934200D1D6
:101D8000D9E052460821605E52880004594610434B
:101D90009847009001910099019A0B00100013439D
:101DA00000D1CEE013000A00B61A9F41002806DBDE
:101DB0007A4800F005FB009E019F36184F415346BC
:101DC0009E60DF6000229A5E002A00DA86E75300F8
:101DD00099186069C900411802938B68C9689B46CD
:101DE000B94200DD7AE702D1B34200D976E7082391
:101DF0009C46A444059565462281A446029B2C007E
:101E000006E053009918C90041188D68C968AB46AF
:101E10009B18DB00C318B94206DC00D1B3E01C00FC
:101E20000023E25E002AECDA230064469C46534617
:101E30001A806346059D1D80A3881BB2002B00DA23
:101E400051E72269EFF3108172B61368002BFCD0C2
:101E5000BFF35F8F0123A7885B42A3803FB2236952
:101E6000BFF35F8F00221A6081F31088002F00DA21
:101E700039E72300083322009A4666697B00DB19A4
:101E8000DB00F318996850468C460824115FDD6822
:101E9000002910DB029306E0AB4244D00023E15E50
:101EA0002000002906DB4C006418E4003419E368C4
:101EB000AB42F1DD029B078000201F5E1980002FDE
:101EC000DCDA1400A379002B00D110E70023A37102
:101ED00026000823E15E08364B1C00D12CE70800E1
:101EE000A246656902E03E004B1C1AD04B005B180D
:101EF000DB00EF180A008C46E95E7B881BB2002BE2
:101F0000F1DA01235B42DC17BB60FC60824205D042
:101F1000534631801B893B8053461A8160464B1CD7
:101F2000E4D15446E5E6A3686345B7D9C2E76B1C24
:101F300000D0EAE6F8E65B4658461B699847002859
:101F40001BD153461B8822692381EFF3108372B69D
:101F500011680029FCD0BFF35F8F514662880A8068
:101F600022696580BFF35F8F0021116083F31088C1
:101F7000B4E6864200D8F8E6B0E65B461A685B68CD
:101F80000092019307E7B34500D848E74CE7C04605
:101F9000C82500203C700540A11C001000400540F1
:101FA000074810B50268EFF3108172B61368002B72
:101FB000FCD0BFF35F8F05F0CDFD0020002110BDE8
:101FC0008829002070B52E4C2569002D04D00A21E7
:101FD0002C48FFF70DFE70BD2B4E0321300000F0A2
:101FE000E5F9E660FFF7FCFA284B03229C46D02374
:101FF00022701B061B6801216370254B6044A3609F
:102000000F23800020610220638063694942A18020
:1020100019800231198647311D83585218315A529E
:1020200075325C39995218320131995218320131A6
:102030009952183201319952083518329D520231A5
:10204000183299521832013199521832013199528D
:102050001832013199521832013199521832013136
:1020600099520C4B0C49DC6001303562FFF72EFBB6
:1020700001210320FFF7F2FA084B1D60A7E7C046D5
:102080004410002088290020004005404000003412
:10209000FFFF1000C8250020A11C0010386005407B
:1020A0000048704744100020F8B51F0008AB1B78AB
:1020B00004001600002B08D100F08AF932003B0022
:1020C000121A8B41002B00DA52E02269EFF31080E4
:1020D00072B61368002BFCD0BFF35F8F0223E15E62
:1020E00063694A005218D2009B182269002936DB26
:1020F0001D886580BFF35F8F0025156080F3108811
:10210000069A9E60DF601A61079A5A615A88013206
:102110005204520C101C002A1FD082B258800804AE
:1021200010432669EFF3108772B63268002AFCD09C
:10213000BFF35F8FA2881A80A1802369BFF35F8FEE
:1021400000221A6087F310880A4923788C460132EE
:102150009A40E36863441A60F8BD0120DDE7BFF3ED
:102160005F8F0023136080F3108801204042F3E763
:102170000020F1E73C20000070B501000469EFF396
:10218000108C72B620680028FCD0BFF35F8F02204D
:102190000D5E4C6968004019C00024180869002DC4
:1021A00036DB26884E80BFF35F8F002606608CF3F7
:1021B0001088E36063880498013320615B0405980C
:1021C0005B0CA26060611A1C002B1FD093B2280424
:1021D000628018430A69EFF3108C72B61368002B03
:1021E000FCD0BFF35F8F8B8823808D800B69BFF39A
:1021F0005F8F00221A608CF310880B7801329A40AE
:10220000CB6808498C4663441A6070BD0122DDE743
:10221000BFF35F8F002303608CF3108801204042DE
:10222000F3E7C0463C20000010B543890A149342EE
:102230001ADD53009B184269DB00D3180469EFF3E1
:10224000108C72B62268002AFCD0BFF35F8F5A88C8
:10225000090494B2090C8A4208D00369BFF35F8F66
:1022600000221A608CF31088002010BD8022120218
:1022700014435C80012302698371BFF35F8F0021E7
:1022800011608CF31088044902788C469340C26830
:10229000012062441360E8E73C200000407870476A
:1022A000F0B557464E46DE464546E0B506000F00FF
:1022B00085B0EFF3058399468B46002B12D0384941
:1022C00000204B6ABB4206D38A6ADB1B591E8B4136
:1022D000B2424041184305B0F0BCBB46B246A946E5
:1022E000A046F0BD2F4B9A46DB68984653461B78B4
:1022F0004046039300F064F84246039B0400043315
:102300009B009B580D001B1A39003000001BA9418F
:10231000894510DC0DD020BF214A0020536A5B455F
:10232000D9D3926ADB1B591E8B41B24240411843FC
:10233000D1E78342EFD900F04BF832003B00121A8C
:102340008B41002B1ADB00230193174B32000093C3
:1023500050463B00FFF710FF011E0FDD104B5A6A7D
:102360005A451BD39B6AB34216D35046FFF75CFF16
:102370000B4A0020536A5B45ADD3D2E7084A0020E0
:10238000536A5B45A7D30020926ADB1BB2424041EF
:102390005A1E934118439EE75A45E6D120BFE4E711
:1023A0000040054044100020A11F001010B5024A53
:1023B0000248FFF7AFF810BD24AB00103421002015
:1023C0000300416A0A00986A596A8A42FAD1704742
:1023D000034B596A0A00986A596A9142FAD17047C8
:1023E0000040054070B504000D00174A536A1900FB
:1023F000966A536A8B42FAD13000190024184D4175
:10240000AB4216D813D0104B2A005B6A9D4203D909
:102410000D494B6A9342FCD3934207D10A4A02E02A
:10242000516A994202D1916AA142F9D370BDA64284
:10243000E9D9054B5B6A1C005A1CEFD0012201242C
:102440006442E5175242E3E700400540F8B5DE4636
:102450004E4657464546E0B58B4605000A9918009A
:10246000160000F0EFFA0A9B6C001F02324B641951
:102470009C46A4006444636881469F4200D967601B
:102480002B1FDBB29846012B30D9C02380229B0141
:10249000E31812011A60294BAD0059599A460029D8
:1024A0001BD17301E026226853401E408023424620
:1024B0005B01E3181E60012A30D9802380229B0132
:1024C000E31812011A6053464A4667605A51F0BC3D
:1024D000BB46B246A946A046F8BD586900F0B2FA1C
:1024E000013043001B18033BFDD2DAE75B46012BAA
:1024F000CBD1C02303229B01E3181A60023AA368E0
:102500001A42FCD07301E0262268AD0053401E4001
:1025100080230A4A5B019246E3181E605A462168EE
:10252000514003220A401A6001225B469A40A36888
:102530001A42FCD0C1E7C04600800040382100208C
:10254000F0B546464F46D646C0B51F00344B440052
:102550009C462418A4006444636888461600FF2B38
:1025600002D880235B006360031FDBB29A46012B15
:1025700030D9C02380229B01E31812011A60294B35
:1025800085005959994600291BD17301E02622681C
:1025900053401E40802352465B01E3181E60012A0F
:1025A00030D9802380229B01E31812011A60802316
:1025B0005B0063604B465F51E0BCBA46B146A8463B
:1025C000F0BD586900F03EFA013043001B18033B90
:1025D000FDD2DAE74346012BCBD1C02303229B0176
:1025E000E3181A60023AA3681A42FCD07301E0268D
:1025F0002268850053401E4080230A4A5B019146B1
:10260000E3181E6042462168514003220A401A60C6
:10261000012342469340A2681342FCD0C1E7C04662
:102620000080004038210020014B8000C0587047D6
:1026300038210020F8B5040021481E0017000D00C5
:1026400000F000FA0100380000F0FCF9069B3604A7
:102650001B031E432368002B20DB1A4B1A49E31887
:102660005A1E93418022920194465B421B0B174AEB
:102670001B0363441360164A13601F000A689743E4
:10268000FBD1144B2560E2182123A060136023685E
:10269000002BFCDA0823E6601360F8BD3F232268B4
:1026A0001340AB42D9D1A3681B051B0D8342D4D183
:1026B000EE22E368D2021340B342CED1EDE7C0462A
:1026C000001BB7000040FDBF08C0004000E0004014
:1026D00000F000400430000010B580241C4BE405DD
:1026E0001C6000281AD001231A4C18431A4BDC61D5
:1026F0001A4C44401C62596298628021144BC905EF
:102700001960174817490860E021C9041960002AB8
:1027100007D18022144B12061A6010BD0E4BD861EF
:10272000EBE753019B1A9B009A18802312015B046C
:102730009A4209D213000D490B60074B5A60802260
:10274000094BD2051A60E8E7094B1A00F3E7C046C7
:1027500000B00540D3C007B0008005402D3FF84FC2
:10276000FCFF01000820014000A00540A02500203A
:10277000FFFFFF008023024A9B000B43D362704798
:1027800000800540002310B50100988A1B8B9847F4
:1027900010BDC046162310B50100188802331B88EF
:1027A000984710BDF8B54746CE4680B50F1E18D0E5
:1027B00014239946043304000025012698464B460D
:1027C0001888434621681B88984701C4431E9841D6
:1027D00001350640AF42F2D13000C0BCB946B04628
:1027E000F8BD0126F8E7C046002370B504000D00CF
:1027F000988A05491B8B984703000020002C01DBB9
:102800000130A0402900984755420000AA23064AFB
:102810001B0113608D235B00D3600449044B1960D6
:102820005368002BFCDA70470040024000B0FA0009
:10283000006002407047C04610B50148FEF74CFEEC
:1028400048AB001070B5074D074EB54209D20024C1
:10285000013E761BB60808CD984723000134B342E9
:10286000F9D170BDD8A9001014AA0010054B064A72
:1028700006491A60064A074B1A6010000B68984315
:10288000FBD1704700E00040BFCDFBFE08C0004018
:10289000FE7F3C0000F00040044BDB6C002B03D1BA
:1028A0008022034BD2021A607047C04600001150CC
:1028B0004C201150044A054B1A60054A1368DB018D
:1028C0008033FBD17047C046FFFFFF0100F000409E
:1028D00008C000404022034B9A675A671A67DA66BD
:1028E0007047C04600F0014010B5FEF797FE10BDDE
:1028F00070B5044D044CA968C022200000F09AFC79
:10290000AC6070BD00ED00E000000020002310B5B9
:10291000294C82B0A367FFF779FF0122274B1A6089
:10292000636C012BFCD10322254B1A60224A936B66
:10293000012BFCD1013300930121224A22480433A8
:10294000FFF778FE052301210093204A2048FFF776
:1029500071FE0022022104201E4BFFF7F1FD002230
:10296000012105201C4BFFF7EBFD00220021072071
:102970001A4BFFF7E5FD002200210820174BFFF757
:10298000DFFD8023DB000093002200210920134B90
:10299000FFF75CFD0022104B00210620FFF7D0FD61
:1029A0000420FFF741FE0E4900F04CF80100002022
:1029B000FFF7E0FE02B010BD008000403CB00040D8
:1029C00030B00040002F685900800240008C8647DC
:1029D00000C00240001BB70040597307006CDC02C6
:1029E00040420F0001480421014B184760100020AD
:1029F000A5270010124A936F9B0815D29066D166E6
:102A0000002905D0FFE7FFE7FFE7516F106F704720
:102A100004B580210906C2175140002800D0C843E0
:102A200007F092FF002104BDF0B5146E556E576F8C
:102A3000166FFFF7E3FF1466556657671667F0BD1C
:102A4000000000D0114A936F9B0813D210665166A4
:102A5000002905D0FFE7FFE7FFE7516F106F7047D0
:102A600004B5002801D00020C04307F06DFF00210D
:102A700004BDC046F0B5146E556E576F166FFFF764
:102A8000E5FF1466556657671667F0BD000000D075
:102A900094464A4A926F9208624601D228E0C046A4
:102AA000F0B5464E346E756E776F366F00F020F8D5
:102AB0009446424A14665566576716676246F0BDEB
:102AC00094463E4A926F9208624601D254E0C04654
:102AD000F0B53A4E346E756E776F366F00F04CF885
:102AE0009446364A14665566576716676246F0BDC7
:102AF000002B24DB11D000293EDA00B5C943404247
:102B000000D1013100F038F8C943404200D1013111
:102B1000DB43524200D1013300BD002AEBD1002833
:102B200001D1002905D00020C90FC90701D1C04338
:102B3000410800B507F0F8FE0022002300BD00B5F3
:102B400000290ADBDB43524200D1013300F014F8C4
:102B5000C943404200D1013100BDC943404200D1C8
:102B60000131DB43524200D1013300F005F8DB4371
:102B7000524200D1013300BD002923D1002B18D1CE
:102B8000002A0CD0BC460D4F38667A66002100231F
:102B9000FFE7FFE7FFE77A6F386F67467047002867
:102BA00001D00748010000B507F0BEFE0022002357
:102BB00000BD02000B00002000217047000000D083
:102BC000FFFFFFFF002B00D0BFE0130C28D1002A2D
:102BD000E7D080B4114F39667A66FFE7FFE730B47B
:102BE000040C7B6F396F1B0423433B667A66FFE757
:102BF000FFE7FFE7C04684B27B6F3D6F1B042343B2
:102C00003B667A66FFE7FFE7C04600232C042D0CE5
:102C10007A6F386F00196941B0BC7047000000D06E
:102C2000F0B594460025140E01D112020835140F98
:102C300001D112010435940F01D192000235D40F55
:102C400001D152000135D40B0134254F7C66254C4F
:102C50003C660E0C93B2FFE7FFE7FFE73C6F66436D
:102C6000360C7703BE467343DF0B5B04C01AB941D1
:102C7000130C7343DB18C91ACE086643360CB644EE
:102C800093B273431F0F1B01C01AB941130C734356
:102C90001F0B1B05C01AB941860D8F023E436643C8
:102CA000360C092D24DB520A7243801A7703460A38
:102CB0006643360C16235B1BDE40DF40BF196446BB
:102CC0006643821B7046043506330100D940A84094
:102CD000C01900D30131A24206D20023F0BD00008A
:102CE000000000D0FFFFFFFF121B0130F3D3F1E71C
:102CF00009277F1BFE406446A2B27243801A00D2AD
:102D00000139220C7243130C1204821A99410B00F0
:102D10007046043513370100F940A840801900D3EC
:102D20000131002B02D1A2420AD2F0BD013000D302
:102D30000131121BFAD2013BF8D1A24200D2F0BD00
:102D4000013000D30131121BF7E7F0B51C0C00D0A5
:102D500080E00CB400251C0A04D11B02160E33437C
:102D6000120208351C0B04D11B01160F334312014C
:102D700004359C0B04D19B00960F3343920002351F
:102D8000DC0B02D192185B4101351C00971864419D
:102D90000134464F7C66464C3C660E0CFFE7FFE76D
:102DA000FFE7C0463C6F6643360C7703BE4697B2DA
:102DB0007743C01B00D20139C01B00D201399FB23A
:102DC0007743C91BC91B170C77437E04FF0B801B7D
:102DD000B941CE086643360C0C2D33DBB644120BDA
:102DE0001F053A431B0B97B27743C01B00D2013932
:102DF0009FB27743C91B170C77433E043F0C801BDF
:102E0000B941860D8F023E43664329277F1BFE4052
:102E10000C3D7746AF40BF1930BCA2B2ABB2724393
:102E20007343801A9941220C7243130C1204801AC6
:102E3000994102000B000137001BA941F9D2781E0D
:102E40000021F0BD0C277F1BFE4077467F0BAF4073
:102E5000FF19E0E700245D1C07D0144F7D6639663A
:102E6000FFE7FFE7FFE7FFE73C6F95B29EB26543E0
:102E70006643401BB141150C1E0C65436643360486
:102E80002F0C3E432D04401BB141994204D2020055
:102E90000B0020000021F0BD01D19042F7D3801A31
:102EA000994101349942F2D3F6E70000000000D0C6
:102EB000FFFFFFFF48404140484018B4134B5B6898
:102EC000019308BD18B4114B1B68019308BD9446CB
:102ED0000F4A926F920805D2624618B40B4BDB681A
:102EE000019308BD0A4AF0B5146E556E576F166F00
:102EF0006246FFF7F2FF064A146655665767166783
:102F0000F0BD18B4014B9B68019308BDC0170020A9
:102F1000000000D0FFB550404240504059404B4067
:102F2000594000E0FFB5154F4C00640D03D0BC4282
:102F300004D10C0314D80020090D09055C00640DB0
:102F400003D0BC4204D11C030AD800221B0D1B0570
:102F500001264B4009D44B4003D58B4200D182421D
:102F6000FFBD9942FCD19042FFBD0B43DB180343E8
:102F70001343F5D0C9434918FFBD0000FF07000007
:102F800000B5FFF7CFFF804100BDC04600B5FFF799
:102F9000C9FF01D9002000BD012000BD00B5FFF729
:102FA000B9FF01D9002000BD012000BD00B5FFF729
:102FB000B1FF804100BD012040054A00121804D82D
:102FC0005A00121801D800207047012070470000F5
:102FD0000021002805D17047C1174840401AFAD097
:102FE000C90713B5064B1B6898470CBC441CA2408C
:102FF0001005120B0349091B09051943114310BDA4
:10300000842800201F04000010B54C00620D8023AE
:10301000D218DB00D21A5B057E2A10DD9E3A13DA45
:10302000CC170903490819435242D14064000134C6
:103030001532202A05DAD0400843604310BD002035
:1030400010BD0846604310BDC80FC018013810BD40
:1030500018B4024B5B6A019308BD0000C017002042
:1030600010B50148FEF738FA54AB0010132370B5C1
:103070001D78012D19D014DD1D48FFF78BFB0600CC
:103080001C48FFF787FB1C4C80223100200000F019
:10309000D1F8022D06D01948FFF774FB184B1860C1
:1030A00070BD154C174BA364F5E7174B124C23600A
:1030B0006360A360E36023616361A361E3612362F2
:1030C0006362A362E36223636363A363E3632364D2
:1030D0006364A364E36423656365A365E3652366B2
:1030E0006366A366E36623676367A367E367D9E75D
:1030F0005344000053460000C01700204C3300002A
:10310000842800200D3100106130001007B56046A2
:1031100001880A0A0230DF2AFAD1C9B2820804D330
:10312000028840880004104300E00068014A5050C3
:10313000039007BDC017002051434343C9188C4674
:10314000110C83B24B4310B4040C614392B280B2B1
:10315000504362431C041B0C001910BC594113045A
:10316000120CC018514161447047000010B501486D
:10317000FEF7B2F968AA0010132310B510481C78A6
:10318000FFF708FB0100012C0AD003DD80220D4867
:1031900000F050F80C48FFF7F5FA0C4B186010BD22
:1031A000084C5422200000F045F8220008498032E3
:1031B0002368002B00D1216004349442F8D1E9E760
:1031C00053460000882800204C330000842800204B
:1031D0006D310010F8B506000C000C4F380007F0F8
:1031E000F3FB2100300006F08DFE0500380007F0EB
:1031F00093FB7443002D05D0054B2C199C4201D83C
:103200002800F8BD0348FEF767F9C04628160020DD
:10321000000004206CAB001001480421014B18474A
:1032200070100020A5270010014B1B6818470000F4
:1032300070100020014B5B681847000070100020E0
:103240009A4200D2885470477047C046F8B5574636
:10325000DE464E464546E0B599460A9B07009A462B
:103260000D9B884693460B9C9B073BD10C9B9C4235
:103270003DD21E1B0B9415000C005E442A004B46E9
:10328000013521002020B847B542F7D1A0460B9C5C
:10329000002C20D0454636195346321B013C185DA0
:1032A00029004B46B847002CF6D12B003500984634
:1032B0000D9B9B070FD55B46EC1A0C9BA3420AD9CA
:1032C000464698462A004B46310020200134B84734
:1032D00001354445F6D32800F0BCBB46B246A946AA
:1032E000A046F8BD16001500002CD3D1E0E716006B
:1032F0001500002CCED1EEE7F0B54546DE46574628
:103300004E46E0B585B09C4610AB1B78149F9346A3
:1033100098460F9C129E139DBB074CD4002D42D1A2
:10332000B44248D201233B4099460E9B013B9A464A
:10333000302304E0524601341355A64201D9202C13
:10334000F8D14B46002B00D183E00E9B013B994600
:103350003023A54205D82EE04A4601341355AC422D
:1033600029D0202CF8D1FB060CD57B0554D4A642DD
:1033700063D0A54261D0119B102B50D0022B57D0A7
:10338000202C32D1202301930E9B5A4600930397A1
:1033900063460295FFF75AFF05B0F0BCBB46B24644
:1033A000A946A046F0BD01233B40994601233B427C
:1033B0002AD1B442B9D3FB061CD57B05DBD4002C43
:1033C000D5D1119B102B5BD0119B022B6BD03023DE
:1033D00001240E9A13704346002B10D17B073ED573
:1033E0002B260E9A631C1655CDE723000134302698
:1033F0000E9AD654202CC5D04346002BEED02D2655
:103400000E9A631C1655BEE74346002B2FD0013D94
:10341000B44200D289E798E7119B102BB2D1BB06CA
:1034200037D5202CAED058230E9A13550134A7E778
:10343000202CA7D02300013407E0631E012CC0D04C
:10344000119A102A31D0022AD1D162260E9AD6546E
:1034500096E7FB06CED57B0500D488E78BE72300F3
:103460003E0790D520260E9A013316558BE70C2384
:103470003B405A1E9341ED1AB44200D255E764E72F
:10348000BB060ED478230E9A022413703023537097
:10349000A1E7202C00D175E778230E9A135501344B
:1034A0006EE75823EFE76033EDE70E9AA61E9146CC
:1034B0004E44BA0602D55822327098E7782232700C
:1034C00095E7C04610B5002800D110BD01F060FCA2
:1034D000FBE7C046F0B55746DE464E464546E0B5EA
:1034E00095B083460F00924698461E9A1F9B100087
:1034F0001900209EFFF75FFD002800D0EAE11E982A
:103500001F990122C54B5242FFF73AFD002800D017
:1035100014E11E981F990122C14B5242FFF746FD4C
:10352000002800D0E9E01E981F990022BD4BFFF74C
:103530003DFD002800D0C8E01E981F990022BA4B1C
:10354000FFF71EFD002800D0BFE01E981F99002243
:103550000023FFF715FD002800D0E4E000230B93C3
:10356000229B5B0500D406260024302307E01721A8
:1035700006AA013452181355013E202C01D0092E01
:10358000F5D81E981F99FFF73FFDA84BF2009B1836
:103590001A685B68050008920993FFF71DFD020099
:1035A0000B001E981F99FFF788FC089A099BFFF7EC
:1035B000A8FC06900791FFF74BFD8146FFF708FD39
:1035C00002000B0006980799FFF777FC0022984B42
:1035D00006900791FFF7EAFC002800D10DE10123D6
:1035E0009C46E1444846FFF7F3FC02000B000898B4
:1035F0000999FFF7CBFC002802D00023994601353A
:10360000002E00D1D9E006954D46B94614E006AA31
:10361000944617230A216344280001341F19FFF739
:1036200011FA3031397028000A21013EFFF70AFAF9
:10363000092D00D817E10500202CE8D14F46069D42
:1036400020240CAE06AA17239446634499465B4691
:10365000B34606930FE04B4628000A210134E618D2
:10366000FFF7C8F93031280031700A21FFF7C2F99D
:10367000051E00D1E4E0202CEDD1069B5E469B4662
:103680000323229A1340012B18D1219B002B15D024
:103690000B9B002B00D1FDE0219B013B2193202BB4
:1036A0000CD93023219A07E0172006A90134091804
:1036B0000B55944200D3CCE0202CF5D1229B0194F1
:1036C0000393219B0096029322E0229B524604938F
:1036D000219B3900039358461E9B1F9C0296009322
:1036E0000194434600F04AF90400200015B0F0BCF4
:1036F000BB46B246A946A046F0BD229B5B070FD44D
:1037000003224C4B2299019203912199009302913B
:103710004346524639005846FFF798FD0400E4E757
:103720000422454BEEE71E9A1F9B00200021FFF765
:10373000C4FB01231E901F910B9311E7229B54465B
:103740009B0711D1219B042B0ED9219B55469C46EA
:103750005E46043C64442A0043460135390020207B
:10376000B047A542F7D1B346344D26002B1F9946EA
:103770005B46A3461C003200E87843463900013D11
:10378000A04701364D45F6D123005C469B46229B5F
:1037900004349B07A9D55346219AE31A9A42A4D927
:1037A0005E4615002200434639002020B0475346AC
:1037B0000134E31A9D42F5D897E72800FFF70CFC87
:1037C00002000B001E981F99FFF777FB0022184B91
:1037D00006900791FFF7D4FB0CAE002800D031E72C
:1037E000069807990022124BFFF7E0FB002800D053
:1037F00028E7012301359D4324E700220698079915
:103800000B4BFFF7BDFB002800D0F9E64B46002B21
:103810005CD101239C46E144F2E6C046FFFFEFFF86
:10382000FFFFEF7F65CDCD4165CDCDC190B10010DB
:103830000000E03FD0AB0010C8AB0010D8AB0010C8
:10384000069B5E469B460323229A1340012B00D120
:1038500081E0202C00D131E70B9B002B27D02D23BA
:10386000335501342AE74F46069D202C00D1E7E668
:103870003022331907E0172006A9013409180A5528
:10388000202C00D1DCE6A342F5D12E220CAE01346F
:10389000F254D7E60C23229A134257D0219B013BC6
:1038A0002193A34200D9FCE6202C00D106E7229BFD
:1038B0005B0703D52B2333550134FFE6229B1B07FF
:1038C00000D4FBE6202333550134F7E6DB0700D4B0
:1038D00096E69EE7229B55469B0711D1219B032B21
:1038E0000ED9219B54469C465E46033D654422000A
:1038F0004346013439002020B047AC42F7D1B346EB
:10390000B9465F461C4EEC1C2A00B0784346494637
:103910000135B847013EAC42F6D1229BBB464F462B
:103920009B0700D4E1E65346219AE31A9A4200D855
:10393000DBE65E4615002200434639002020B047F2
:1039400053460134E31AAB42F5D3CEE6219BA342A2
:1039500000D9A6E6B2E6219B002B00D179E70B9BAC
:10396000002B97D0219B013B21939C4200D298E6EB
:10397000202C00D073E7A1E6D4AB0010F0B5DE46F2
:1039800057464E464546E0B599B081468B4692462D
:103990009846229A239B10001900FFF70CFB002881
:1039A00000D0CAE0229823990122824B5242FFF7AD
:1039B000FDFA002800D0C0E02298239901227E4B16
:1039C0005242FFF7DDFA002800D0B6E02298239992
:1039D00000220023FFF7D4FA002800D0C9E1229B7F
:1039E000239C08930994089809998023269ADB0060
:1039F0001A400D928022269C1201144022000B9442
:103A0000269C07000E001C4200D0ADE00B000343D3
:103A100000D0D5E0002A00D00AE222000633249329
:103A2000022313400C930223134200D002E2259B91
:103A3000042B00D20FE2043B0B93002304250A93CE
:103A40000022229823990023FFF79AFA002800D039
:103A500003E25A4B269A134004930B9B0393249B37
:103A60000293089B099C0093019459464346524691
:103A70004846FFF72FFD02002020269B1F2703400A
:103A800059424B415B421840531C089359464346E8
:103A90004530C8470A9AD317D4185C40D30F0A930D
:103AA0006B1E0B9308AB9C460025674401E0202D5C
:103AB0000FD020000A21FEF7C5FF01357E193031F5
:103AC000317020000A21FEF7BDFF26000400092EF8
:103AD000EDD8052306930B9B5946059300230493C9
:103AE0000A3303930A9B4846029310AB0093089A4B
:103AF00043460195FFF700FC0C9B002B2DD053464D
:103B0000C41A259BA34228D94D465F4681461E0014
:103B1000534639001A19202043460134A847A642CB
:103B2000F6D8534648462599C21A013200239142DD
:103B300000D386E1013018180FE0269B0493259BE3
:103B40000393249B0293229B239C0093019443465E
:103B5000524659464846FFF7BDFC19B0F0BCBB467B
:103B6000B246A946A046F0BD01432BD10B9B2200D3
:103B7000002B00D154E700230A93249B0A9A0024C7
:103B8000934200DD85E12298239900220023FFF76C
:103B9000F7F9002800D035E1269B084A02941A4024
:103BA0008023DB0013430493259B0393089B099C0C
:103BB000CBE7C046FFFFEF7FFFFFEFFFFFF7FFFF01
:103BC00006232493B44B70009C46400D6044FFF7DD
:103BD00003FAB24AB24BFFF794F9B24AB24BFFF77D
:103BE00071F93603B14B360B334304000D00380036
:103BF00019000022AE4BFFF760F9AE4AAE4BFFF75B
:103C000080F902000B0020002900FFF75BF9FFF7A5
:103C1000FBF90A90FFF7E0F9A84AA94B04000D0050
:103C2000FFF76FF90022A74BFFF74CF9FFF7ECF90C
:103C3000A54A0600A54B20002900FFF762F9040001
:103C400030000D000C96FFF7C7F9A14AA14BFFF712
:103C500058F902000B0020002900FFF72EF902009E
:103C60000B0006000F00FFF74CF9320004000D00B6
:103C70003B0030003900FFF725F900220E900F912C
:103C8000954B20002900FFF722F90022934BFFF704
:103C900019F902000B0020002900FFF718F9002293
:103CA0008F4BFFF70FF902000B0020002900FFF7F0
:103CB0000EF90D008021040032003B000020C905F0
:103CC000FFF7FBF802000B0020002900FFF7FAF8CD
:103CD00002000B000E980F99FFF7F9F80022734BC2
:103CE000FFF7F0F87F4B0C9C9C46644400222305B0
:103CF000FFF707F906000F0002000B00089809996A
:103D0000FFF73EF900280AD00A9B3000013B39003A
:103D10000A930022714BFFF7DAF806000F000A9AA7
:103D2000330063323900C62A12D8022226980425AD
:103D300010400B9A0C90002A25D1259B042B05D905
:103D4000002800D0A1E0259B043B0B93042541E013
:103D50000222269810400B9A0C90002A12D1259B23
:103D6000052B76D9002872D1259B0525053B0B93A1
:103D700034E0802212069446229B0893239B6344DE
:103D8000099330E605250B4300D1F6E6089809991A
:103D9000554A564BFFF702F9002808D008980999B0
:103DA0000022534BFFF7ECF8002800D0E5E6249BF7
:103DB000002B1CD00D9B002B19D0249B013B24937E
:103DC000259BAB4204D90C9B002B5AD002230C93A9
:103DD00000230B930A9B002B00D131E60898099928
:103DE00032003B00FFF773F80890099128E6259B05
:103DF000AB42EDD90C9B002B43D000230B93023335
:103E00000C93E7E78020269B3A4A00061A4080235D
:103E100084460294089C099D2900DB001343049307
:103E2000259B6144220003930B00009201938EE6D0
:103E30000524A8E600230B930A93023304250C9370
:103E4000FEE553468C46013B63441B1A72E602238F
:103E50000C930525C2E70423EDE58020089E099F09
:103E6000000639008446269A224B6144134004938D
:103E70000B9B32000393249B02930B00009201934F
:103E8000F3E5259B5B1B0B93A4E7022304250C930E
:103E9000A0E79C1A013C76E601FCFFFFFB799F50EE
:103EA0001344D33FB3C8608B288AC63F0000F03F5D
:103EB0000000F83F61436F63A787D23F71A3790980
:103EC0004F930A400000E03F1655B5BBB16B02406E
:103ED000EF39FAFE422EE63F00002C40000024405D
:103EE00000001840FF0300002D431CEBE2361A3F90
:103EF00080842E41FFF7FFFFF0B5DE4657464E4661
:103F00004546E0B5A5B01E002E9B92460C93CD4AC7
:103F1000CD4B80468B461A60002900D1EAE1002390
:103F200030789946002800D1ECE1C84B4C460B9301
:103F3000C74B454657460E930AE0631C984622003D
:103F40003B005946A84744463078002800D187E016
:103F500001362528F1D108239A46043B9946023BB5
:103F60009846013B00229C460D943078711C03005A
:103F7000203BDBB2102B03D80B9C9B00E3589F46E1
:103F80000300303B89460D9C092B3AD90023984603
:103F90002A2800D1C1E000239A462E284BD00300E6
:103FA000683BDBB2122B1ED80E999B00CB589F4664
:103FB00063460E001A43D8E743460E001A43D4E77F
:103FC0004B460E001A43D0E710230E001A43CCE7ED
:103FD00053460E001A43C8E780235B001A43FF3B99
:103FE0009C467078E1444E4667284FD82428A4D9CF
:103FF0000300253BDBB2422B9FD896499B00CB5850
:104000009F46002394461E0000E00131B3009B1937
:104010005B001E180878303E0300303B092BF4D9B2
:104020000123624689469C460023B0469A460E000C
:10403000E1442E28B3D13021802049428C46C00073
:10404000024370784B4684446146092900D86CE1EC
:104050002A2800D17AE101239C464E46E1449EE79E
:10406000A146A846BA46CA4503D801235B42534439
:10407000994653464A4659460020C047200025B07D
:10408000F0BCBB46B246A946A046F0BD0300693B62
:10409000DBB20D930F2B00D94FE7012199408C46DD
:1040A0006D49894661464B4619400F916346494622
:1040B0000B4200D028E10D9B0A2B3AD0072B00D0F1
:1040C0003BE70C9B190008C98846002B00D14BE147
:1040D00021200243914614A98C461F220F216244DD
:1040E0008C4651460D950C91A24615000F9902E0A1
:1040F00020290CD0130064461C4020003730092CC6
:1041000000D80738013168541A090F2BF0D80C9BDE
:1041100054460D9D9A460F9133E10C9B02CB884685
:10412000002947DB0C9301239C4670784E46E144FE
:1041300031E70C9B02CB14935346002B00D138E19E
:104140009C4608780B000C908C44002801D100F0AC
:1041500098FC89466146944603E05A780133002A68
:1041600001D08B42F9D1494662465B1A0C900F93FD
:10417000530500D520E10223180010400D90134292
:1041800000D1CBE30D930B1BB1469A465E460C98CB
:1041900022003B003100A84753460134185D002837
:1041A000F6D1B3464E460D9B002B00D0C7E1149BC1
:1041B0000C93C9E60C9301239C46283849420243DC
:1041C000884670784E46E144E5E670786C2800D168
:1041D0007FE180235B001A43FF3B9C46E14402E7FA
:1041E00080239B001A4301239C467078E144FAE641
:1041F0007078682800D173E180231A437F3B9C4686
:10420000E144F0E6672800D103E1472800D15AE1F4
:10421000452800D15AE10492072142460C9B0392A3
:10422000073352468B43190002920CC928000092B2
:1042300001930C9122003B005946FFF79FFB0400BD
:1042400082E6C046F93E00109C250020F0AF001029
:1042500034B0001080B0001041900000462800D11A
:10426000DBE00492072142460C9B0392073352463F
:104270008B43190002920CC92800009201930C9103
:1042800022003B005946FFF725F904005CE6631C59
:10429000984622003B0059462520A847444653E64D
:1042A0000C9B04330D93631C9946920700D422E1C2
:1042B0000C9B2200187859463B00A84743464444CB
:1042C000012B00D885E23300B8462E005F4625005A
:1042D0004C46994622004346013439002020B0471D
:1042E000AC42F7D12C00BB46350047464E460D9BED
:1042F0000C9329E6DB4B307898460023994600283A
:1043000000D012E60024AEE66F2800D188E000D885
:104310000BE31023782800D1CFE09A430A239C4670
:1043200000230F930A330D9380E05646B10089199C
:10433000490001330E181878303E01003039092940
:10434000F4D9B2461E000133994628E60C9B02368A
:1043500002CB8A46C9435046C917084082460C938F
:104360003078731C99461AE61023100098431133D5
:104370001843814680201300C0000340024200D150
:10438000A9E64B460693082305935346049310234E
:104390000393002302930F9B220001931CAB009315
:1043A00059463B002800FEF7A7FF434604000C9344
:1043B000CAE501235B42C3E60F9B534501D953462F
:1043C0000F930223180010400D90134200D1B7E163
:1043D0000D93D1460B1B9A463300A1442E002200B8
:1043E0004D460C98B9465F469B4608E04B4639005F
:1043F000541CB0475346185D002877D022009542E0
:10440000F4D15B46BB464F46A94635004C461E00DC
:10441000C9E680231B011A43FDE620231A4320E747
:1044200008239C4600230F9308330D93802311002B
:10443000DB0019401A4200D116E10D239A43100007
:10444000802302009B001A401492184200D0C2E15F
:10445000802302005B001A4091460C9A04320F92AE
:10446000184200D0B7E2430600D59FE1030600D40E
:1044700019E30C9B1B880993002B00D0FCE110333F
:104480009843002900D1F7E100239946434605935C
:10449000534604930D9B069003930023D2E05828C3
:1044A00008D0622867D102239C4600230F93023371
:1044B0000D93BBE720231A43103B9C4600230F9328
:1044C00010330D93B2E780231B011A4320231A43B4
:1044D000A1E6C0239B001A43F31C9946B07882E5FD
:1044E000C0231A43F31C9946B0787CE535005E463C
:1044F000BB464F4657E64346012B00D863E1631E97
:1045000043449A463300B9462E005F4655469B46C3
:10451000A24622004B46013439002020B047AC426D
:10452000F7D135005E46BB464F46A14654460C9B2C
:104530004A46187859463B004444A847D7E6A14666
:104540000F9B984500D832E64444E41A3300B8463D
:104550002E005F4625004C46994622004346013412
:1045600039002020B047AC42F7D12C00BB463500C3
:1045700047464E461BE680231000DB0018401A42D7
:1045800000D10FE1112118008A430D920D9A80236A
:1045900011009B0019408C461A4269D180231100FA
:1045A0005B00194089460C9904310F911A4200D0E2
:1045B000CAE113005B0600D5F0E013001B0600D42F
:1045C00059E20C9B00229B5ED9175A184A4092B2BE
:1045D000D90F0C91002B00D1F9E1100014AA9446D8
:1045E00042461F23149252466344A84616944D46F1
:1045F0000400B946B2461F00159201E0202D0FD0ED
:1046000020000A21FEF71EFA01357E193031317083
:1046100020000A21FEF716FA26000400092EEDD824
:10462000149B4F46A94645469846159B56469A46C2
:10463000169C0D9B069343460593534604930A2309
:1046400003930C9B02934B4601931CAB22000093F7
:1046500059463B002800FEF74FFE0F9B04000C93C9
:1046600072E4C046493200100C239A431000E7E67A
:1046700007220C9B07339343013294469C446246C5
:104680000C920CCBD90F0F911100194300D191E07E
:10469000D9171391129151401091139959401191CA
:1046A00010981199129A139B801A994110901191A8
:1046B00014AA0023944642469946149252461F3348
:1046C0006344A846B24616944E46109C119DB946C6
:1046D00015921F0001E0202E10D0200029000A2290
:1046E0000023FEF7EDF9013630322B00BA550D00EC
:1046F00022000400002BEED1092AECD8149B109460
:10470000119545469846159B4F46B14656469A46E2
:10471000169C0D9B069343460593534604930A2328
:1047200003930F9B02934B4601931CAB2200009313
:1047300059463B002800FEF7DFFD0400FFF704FCAC
:104740000F9B984500D8C1E18023DB000D934346C1
:104750000F9A1B199B1A994633002E004D46B946F5
:104760005F469B460C9122004B46013439002020C5
:10477000B047AC42F7D143460C9901330F930B7805
:1047800035000C935E46BB464F46002B00D10EE52C
:104790000D9B002B00D1F6E4002319E60C9B1B783F
:1047A0001A0015E710239A430D92EFE60C9B1B7835
:1047B000099361E6002399460028AAD1002200232C
:1047C0001092119374E70C9B2200187859463B0015
:1047D000A8474C468BE50C9AFA3BFF3B07329A43BD
:1047E0000133994691444B460C93136852681592D5
:1047F0001A4306D11032904300220992002900D0BA
:1048000081E06122810600D54122D2B20A9214AA27
:1048100091460A9A00210A3A149242461792524649
:1048200018925A460991B3461F311E000F9B494406
:10483000BA4619941A950024674698468946159DEC
:1048400016901B920AE03032D2B24B4601341A5510
:10485000A8454AD0202C4AD006000D003A0000237B
:1048600030002900FEF72CF9D2B2092AEBD9149BAB
:104870009C466244D2B2E8E76123820600D5412318
:10488000DBB20A3B0C93434614A91F228C461593B6
:1048900053466244A046B2464C461797A9461700B5
:1048A000099D0D9E1490169308E03033DBB201345D
:1048B0003B55B5420ED3202C0CD00500310028000A
:1048C000FEF7C0F8CBB20929EFD90C9A944663449D
:1048D000DBB2ECE7159B4D46A14644469846169B35
:1048E000564614989A46179FD0E5B742B2D9179BFF
:1048F00057469846189B5E469A461B9B09949B46D2
:104900001698199C1A9D43460593534604930D9B94
:104910000690039300230293099B05E70F9B98459C
:1049200000D914E701330F932DE4102311009943AC
:104930000D91692800D0BAE080231000DB001840F8
:104940001A4200D122E61DE60C9B1B68DA0F11000B
:10495000002B00D18CE0DA179818504014AA914629
:1049600042461F23149252464B44A046A94616972E
:1049700004006546B2461F000C91159201E0202DFF
:104980000FD020000A21FEF75DF801357E19303185
:10499000317020000A21FEF755F826000400092E88
:1049A000EDD8149B444698460C9BAC461900159BC9
:1049B00056464D469A46169F0D9B029106934346D6
:1049C0000593534604930A23039363463CE6002869
:1049D00000D02EE602E60C9B1B689946002B03D103
:1049E00010339843002938D16123820600D5412332
:1049F000DBB20A3B0C9343461693534614A91F227D
:104A00008C4617932B006244A0464D46B246189739
:104A100099461700149C0D9E159008E03033DBB2C8
:104A200001343B55B5420ED3202C0CD0050031008B
:104A30002800FEF707F8CBB20929EFD90C9A944663
:104A40006344DBB2ECE7169B149444469846179BEC
:104A500056464D469A461598189F43460593534629
:104A600004930D9B0690039300230293149BEBE5A4
:104A70000028A1D172E70C9B1B68D9175A184A402D
:104A8000A6E580231000DB0018409C460F901A42D8
:104A90000FD00220030013400F93104219D00023BF
:104AA000A1460F934CE50C9B1B680993E4E40A00B4
:104AB00034E40223180010400D90134200D03EE56C
:104AC0004346002B00D042E6FFF771FB01330F9302
:104AD0007FE463460D93F3E70CB430B585B008ACC2
:104AE00008CC064D0A000094010028000394FFF74B
:104AF00003FA05B030BC08BC02B0184741320010C0
:104B000010B5094A0300146884B0002C08D00122B3
:104B100000910648524203A9A047012004B010BDED
:104B200000F080F90020F9E79C250020C534001032
:104B300000BEFDE7094A03001068002805D00849B7
:104B4000C3188B4207D81360704706480449C3183E
:104B500010608B42F7D901204042F5E798210020F0
:104B600000000420C82A022010B5FFF7E1FFC0466C
:104B700070B5FDF767FE074D074EB54209D2002418
:104B8000013E761BB60808CD984723000134B34296
:104B9000F9D170BD14AA001024AA0010030010B5AA
:104BA000080011001B68984710BDC046F0B5C64606
:104BB00000B5437D07000C001600002B46D0002AEC
:104BC00017DD0B780A2B24D000239846012E13D032
:104BD00001252900635C01350A2B26D0B542F8D1A6
:104BE000464509DCA419013C23780D3B5A42534148
:104BF0003B7580BCB846F0BD4346E018A419F11AD5
:104C0000013C3B68984723780D3B5A4253413B7522
:104C1000EFE7037D002BD7D102210F483B6898476F
:104C2000012EDFD001239846D2E7631E5B5C0D2B7B
:104C3000D4D0884504DA4346C91AE0183B6898473F
:104C4000022105483B68A8469847C7E7036811005A
:104C500020009847CDE7C046E0B10010F0B54546CA
:104C6000DE464E465746E0B583B091461C0080466E
:104C70000D00FDF7ADFB0023304A12184B41002B0D
:104C800002DA01222E4B52422E4908008A4605F0D4
:104C900083FE07006B1C03D1404605F0B3FC050002
:104CA000002C27D0284E294B1C68002C18D04B46CE
:104CB000002B21D1264B994602E02469002C0FD00D
:104CC0002368002BF9D04B461B68002B01D09C4277
:104CD000F3D120002A004146B0472469002CEFD1CF
:104CE000002F26D1280003B0F0BCBB46B246A9462F
:104CF000A046F0BD174ED6E7154B99460A239B46B2
:104D000002E02469002CEBD02368002BF9D04B463D
:104D10001B68002B01D0A342F3D12A00414620009A
:104D2000B0476B465A462000DA71D91D0122B047C0
:104D3000E7E7504605F0F0FDD4E7C04640420F00DB
:104D4000FFFFFF7F30160020AD4B001088210020B0
:104D5000942100209D4B00100A4A1368002B05D1B6
:104D60000CE01A001B691032002B07D08342F8D1E7
:104D7000002902D118691060196170470029FCD020
:104D80001060FAE78821002010B500F07FFA10BD0E
:104D9000F0B5CE46474680B583B06B460600DD1DB4
:104DA0002870FDF715FB0023194A12184B41002B00
:104DB00002DA0122174B524217490800884605F0D3
:104DC000EBFD164B81461C68002C14D0144F02E0FA
:104DD0002469002C0FD02368002BF9D03B68002BEE
:104DE00001D09C42F4D1200001222900FFF7DEFE11
:104DF0002469002CEFD14B46002B05D1300003B0C5
:104E0000C0BCB946B046F0BD404605F085FDF5E7AB
:104E100040420F00FFFFFF7F301600208821002056
:104E20009421002070B5040005F0ECFB0123010083
:104E3000050001222000FFF711FF084B1C68002C21
:104E400006D06368002B05D098472469002CF8D160
:104E5000280070BD2469002CF3D1F9E788210020D7
:104E60007047C0460022014B1A707047C32A0220C7
:104E70004B790020FF2B0BD18B79002B08D1CB79FC
:104E8000012B05D1082A03D9024B8A7809301A7000
:104E90007047C046C32A02200120704710B501297F
:104EA00013D112495379107909781B02034300206A
:104EB000994200D010BD5378012B08D0022BF9D1B4
:104EC000642200210020FDF707FC0120F2E7D378DF
:104ED00091781B021943480ADB0501D401204042A6
:104EE0007F238A05D20F1940FDF77EFCC32A0220DA
:104EF00000487047ACB2001070B5050014000120E6
:104F0000012909D153780020012B05D16379127949
:104F10001B021343072B00D070BD21002800024A5A
:104F20009F3301F055FAF7E704B200100123037034
:104F300000487047E4B100104B780A781B02134315
:104F40008A7810B512041A43CB781B0613439622B5
:104F5000D200934200D010BD002201201100404237
:104F6000FDF742FC024B1860024B19607047C046C7
:104F7000282100202C21002010B5024B1878FCF7C6
:104F80008BFB10BDC42A0220154B70B51A68002A8D
:104F900022D0EFF3108172B610680028FCD0BFF366
:104FA0005F8F00200F4A596010701B68BFF35F8F3E
:104FB000186081F31088002400250B4E3078FCF730
:104FC0005FFB002804D1002400252900200070BDCB
:104FD0003078FCF761FBF8E7FA240025A400ECE741
:104FE000C0250020C52A0220C42A022070B5040072
:104FF00000200E0001F00AFB002834D0002001F050
:105000001BFB00282FD0FDF7E3F90023174A1218E5
:105010004B41002B16DB164D280005F0BDFC002887
:1050200021D0002001F0F2FA00280FD10120002148
:10503000404200F001FD03246442280005F06CFCAE
:10504000200070BD01220B4B5242E4E7002001F02A
:10505000F3FA0028EAD021003200002001F0F6FA2D
:10506000041EEAD1E7E703246442E9E740420F0067
:10507000A4290020FFFFFF7F10B5FDF7A9F9002349
:105080000D4A12184B41002B02DA01220B4B5242FF
:105090000B4C200005F080FC00280CD001200021E2
:1050A000404200F0C9FC002001F014FB0028F5D1BB
:1050B000200005F031FC10BD40420F00FFFFFF7FD4
:1050C000A4290020F8B5DE46574680B505000C003F
:1050D000FDF77EF90023364A12184B41002B02DA05
:1050E0000122344B5242344908008A4605F054FCF0
:1050F000002803D1C0BCBB46B246F8BD002001F079
:1051000085FA00284AD00026002C43DD2B4B9B4615
:1051100014E0A919002001F017FB0700012000216D
:10512000404200F089FC002001F0D4FAFDF750F96C
:10513000224BF61918605960B4422BDD002001F0B3
:1051400023FBA71B0200B84200DD3A00002AE0D191
:1051500001200021404200F06FFC002001F0BAFA6B
:10516000002001F053FA002814D0002001F00CFBBD
:105170000028E1D1FDF72CF95B460F001A685B6847
:10518000002184460E4812184B419F4202D8D3D1C9
:105190009445D1D9504605F0BFFBABE70020002174
:1051A000064B18605960504605F0B6FBA2E7C046B2
:1051B00040420F00FFFFFF7FA4290020B817002006
:1051C00020A1070030B52A4C85B00021200005F051
:1051D000C3FB00281CD1274B1A68002A16D0EFF316
:1051E000108172B610680028FCD0BFF35F8F0124D5
:1051F0002148596002781B68D2B20470BFF35F8FF8
:105200000020186081F31088002A17D005B030BD47
:1052100001200021404200F00FFC002001F00CFAB8
:105220000500200005F078FB002DEFD0134B1B6824
:10523000002BEBD0124A10689847E7E7FCF730FFE5
:105240000400FDF7C5F8FA220023920012184B4122
:10525000002B02DA01220B4B524201210291002164
:105260000191094920000091FCF71EFFCEE7C046DE
:10527000A4290020C0250020C52A022028210020C2
:105280002C210020FFFFFF7F894F0010D02310B595
:105290001B0684B01C68FCF703FFFCF7FFFFA0426D
:1052A00002D0002004B010BD294B002100201B7843
:1052B00001F05EFD27480368002B45D00120FCF774
:1052C00081FCFF23244C254920701840FCF7FEF98F
:1052D00020780121FCF7C2F90520FCF7E5F9002848
:1052E00024D1082200211E48FDF79EFFFCF7D8FEBE
:1052F0000400FDF76DF8FA220023920012184B41CA
:10530000002B02DA0122174B5242012102910021A7
:105310000191154920000091FCF7C6FE0028C0DB72
:1053200012480121FFF718FD0120BBE70120FCF71F
:1053300063F90B4B01001800FCF7A8FC00220520C4
:105340000B49FCF7EDF9EBE7FCF784FCB6E7C04648
:105350009CB40010A4290020C42A0220C5510010CA
:10536000C0250020FFFFFF7F894F00108010002024
:10537000794F00100048704748B30010004870474C
:10538000F4B2001010B5040017480378002B20D0A9
:10539000002C06D1154B16484380063BFF3B03808B
:1053A00010BD052C1DD8134BA400E0581249012351
:1053B000013804E001330A800231142B0DD0C25CA5
:1053C000002AF7D1C022DBB25B00920008481343E9
:1053D000E5E7112100F01AF8DAE7CA2304489B0038
:1053E000DDE70020DCE7C046AC290220090400000C
:1053F00060210020DCB200106221002010B50248BC
:1054000000F0D8F810BDC0467C28002030B54B1EF7
:10541000012900D1A7E0664A11780D092C0030342B
:105420009F2900D9A2E00470012B00D1BEE00F211A
:10543000147821400C003034092900D998E04470D8
:10544000022B00D1B2E054782509290030319F2C7D
:1054500000D990E08170032B00D1A7E00F212140FB
:105460000C003034092900D987E0C470042B00D126
:105470009CE094782509290030319F2C00D97FE0E9
:105480000171052B00D191E00F2121400C00303437
:10549000092900D976E04471062B00D186E0D47842
:1054A0002509290030319F2C00D96EE08171072B2E
:1054B00000D17BE00F2121400C003034092966D84F
:1054C000C471082B00D171E014792509290030310D
:1054D0009F2C5FD80172092B68D00F2121400C004E
:1054E0003034092958D844720A2B5FD054792509E1
:1054F000290030319F2C52D881720B2B56D00F21AE
:1055000021400C00303409294BD8C4720C2B4DD0EB
:1055100094792509290030319F2C00D90731017376
:105520000D2B43D00F2121400C003034092901D923
:1055300037310C0044730E2B38D0D1790C0922007E
:1055400030329F2900D9073282730F2B2ED00F22C1
:105550000A4011003731092A01D830321100C173D5
:10556000102B23D010300023037030BD07345AE7CE
:1055700037310C0063E707316CE737310C0074E713
:1055800007317DE737310C0085E707318EE737318A
:105590000C0095E707319DE737310C00A3E7073191
:1055A000AAE737310C00C4720C2BB1D1C018DAE76E
:1055B0007C28002010B588B004000D220021684628
:1055C000FDF732FE0D22002104A8FDF72DFE4B232E
:1055D0006A466846137004A90D2205F095F9152155
:1055E000082220006944FDF725FE08B010BDC04622
:1055F000F8B500F047F90C23194DFF22AB670520E1
:105600001849FCF78DF8184C402200212000FDF7C6
:105610000BFE4027002301262121144A66702783B0
:10562000A260136063545F31618445396354104A4A
:1056300010496360E2602787A1620B606362E262E7
:1056400005F09AF980239B052E64EB6490230A4AA7
:105650000120EA508022094B5202DA64F8BDC046AC
:10566000000011502D0500209C21002084001050C6
:10567000000110508000105010D001000020115087
:1056800010B501210520FBF7E9FF10BD10B5002280
:105690000021024800F016F910BDC046BC210020D0
:1056A000044B1970002904D080219023024A8902FA
:1056B000D1507047BF2A0220002011500B785B06A2
:1056C00002D14B78052B00D070478A78014B1A60C5
:1056D000FAE7C04600001150F0B5C646C87800B5DC
:1056E0008007830F1800012B60D08F780A794B79DF
:1056F0007F213940FC091B024E001343334D321900
:105700005201AA18977001276740577000275B0560
:105710005B0DD7701383D076B846CA00012C32D007
:105720002B4FBC468F016244BC46AC446746BA600E
:1057300047461760002932D0264AC9009046624683
:10574000414451603F223F339343022837D02249DE
:1057500037190A687F01D3180B602049EF19FA60E6
:105760008B422ED836197601AD19EB7E1C499B066B
:105770004A4013438022120613436A6813600120D3
:1057800080BCB846F0BD174FBC468F016244BC4692
:10579000AC446746BA6247461760002908D1002327
:1057A00064012C196360104BE360E8E70020E7E731
:1057B0000B4AC9009046624641445162C2E75B0011
:1057C000C5E7FDF739F8FA68CCE7C0469C21002010
:1057D0008400105004001050A4250020FF0F10502A
:1057E00000001050800010500001105010B505F05E
:1057F000C3F810BD10B57F200C0020404000E40924
:10580000110000191A00034B4001C01800F05AF8AB
:10581000012010BD9C2100207F23180000B5084006
:1058200083B00B4204D14B424B41084A013393668B
:105830008022C9094000064B401840010021C018D1
:10584000120105F0B9F803B000BDC04600201150A8
:105850009C2100207F22130010B50B400A4200D18A
:1058600010BDC9095B005B1804485B01C018002328
:1058700000220349C37005F09FF8F1E79C21002046
:10588000FFF7FFFF80220A4B520410B51A60094B44
:1058900009491A6010000B689843FBD1802200214F
:1058A00052010648FDF7C0FC0922054B5A6710BD9E
:1058B00000E0004000F0004008C000400000105030
:1058C00000001150002310B5C38201338282837619
:1058D0000161040005F058F8002804D080219023CD
:1058E000074A8902D150200005F026F8002802D08E
:1058F0000123237710BD200005F056F8FAE7C046D3
:10590000002011507047C0467047C04600207047C5
:10591000002070477047C0467047C0467047C04679
:105920007047C046024B5878431E9841C0B270473A
:10593000381C0020024B18784007C00F7047C04643
:10594000381C0020F0B5D6464F464646C0B52F4B12
:1059500007009A461B780E00FF2B50D1002941D03A
:10596000002154222A48FDF75FFC0022294C2A4BD3
:1059700020001A70FCF76EF9284B1C60284C2000A0
:10598000143CFCF775F9200001F0FAFD254B264D7B
:105990001C60264B002B04D02800FFF7C7FA244BCD
:1059A00018602449002489462149002388462A7822
:1059B00010E043461B6862019B18002B12D05B6805
:1059C000002B0FD098472A780134E4B2511C2300F1
:1059D000A14209DBA242ECD89B1A5B014B445B68F5
:1059E000002BEFD100200BE05346310038001F7030
:1059F000FFF7FEFD0028F5D03800FFF741FE01203B
:105A0000E0BCBA46B146A846F0BDC046B41000207E
:105A1000381C0020301C0020C02A02208C1C0020D2
:105A2000AC100020901C0020BE2A02202D4F001038
:105A3000881A002004B40010F0B5DE4657464E46E2
:105A40004546E0B5C84B91B002931B78FF2B00D1BF
:105A50003EE1C64BC64E9B465F46C64B0DAC01931E
:105A6000C54B009335686A69EFF3108172B613680D
:105A7000002BFCD0BFF35F8FA9612800210001F04B
:105A8000AFFB6A69AB69BFF35F8F0021116083F3DD
:105A90001088002800D11BE16378082BE2D89B0016
:105AA000FB589F466368002BDCD0A0689847D9E775
:105AB0007F222179AF4D0A405300EB189846C80960
:105AC000804440460123303005799D4305710579B6
:105AD00003339D430571002A00D100E14346A74AE4
